{
  "contractName": "CryptoDebitCard",
  "abi": [
    {
      "inputs": [
        {
          "internalType": "address",
          "name": "_bank",
          "type": "address"
        },
        {
          "internalType": "uint256",
          "name": "_initialFiatReserve",
          "type": "uint256"
        }
      ],
      "stateMutability": "nonpayable",
      "type": "constructor"
    },
    {
      "inputs": [],
      "name": "EnforcedPause",
      "type": "error"
    },
    {
      "inputs": [],
      "name": "ExpectedPause",
      "type": "error"
    },
    {
      "inputs": [
        {
          "internalType": "address",
          "name": "owner",
          "type": "address"
        }
      ],
      "name": "OwnableInvalidOwner",
      "type": "error"
    },
    {
      "inputs": [
        {
          "internalType": "address",
          "name": "account",
          "type": "address"
        }
      ],
      "name": "OwnableUnauthorizedAccount",
      "type": "error"
    },
    {
      "inputs": [],
      "name": "ReentrancyGuardReentrantCall",
      "type": "error"
    },
    {
      "anonymous": false,
      "inputs": [
        {
          "indexed": true,
          "internalType": "address",
          "name": "user",
          "type": "address"
        },
        {
          "indexed": false,
          "internalType": "uint256",
          "name": "fiatBalance",
          "type": "uint256"
        },
        {
          "indexed": false,
          "internalType": "uint256",
          "name": "cryptoBalance",
          "type": "uint256"
        }
      ],
      "name": "BalanceUpdated",
      "type": "event"
    },
    {
      "anonymous": false,
      "inputs": [
        {
          "indexed": true,
          "internalType": "address",
          "name": "user",
          "type": "address"
        },
        {
          "indexed": false,
          "internalType": "uint256",
          "name": "ethAmount",
          "type": "uint256"
        },
        {
          "indexed": false,
          "internalType": "uint256",
          "name": "fiatAmount",
          "type": "uint256"
        }
      ],
      "name": "CryptoDeposited",
      "type": "event"
    },
    {
      "anonymous": false,
      "inputs": [
        {
          "indexed": true,
          "internalType": "address",
          "name": "user",
          "type": "address"
        },
        {
          "indexed": false,
          "internalType": "uint256",
          "name": "ethAmount",
          "type": "uint256"
        },
        {
          "indexed": false,
          "internalType": "uint256",
          "name": "fiatAmount",
          "type": "uint256"
        }
      ],
      "name": "CryptoWithdrawn",
      "type": "event"
    },
    {
      "anonymous": false,
      "inputs": [
        {
          "indexed": true,
          "internalType": "address",
          "name": "previousOwner",
          "type": "address"
        },
        {
          "indexed": true,
          "internalType": "address",
          "name": "newOwner",
          "type": "address"
        }
      ],
      "name": "OwnershipTransferred",
      "type": "event"
    },
    {
      "anonymous": false,
      "inputs": [
        {
          "indexed": false,
          "internalType": "address",
          "name": "account",
          "type": "address"
        }
      ],
      "name": "Paused",
      "type": "event"
    },
    {
      "anonymous": false,
      "inputs": [
        {
          "indexed": false,
          "internalType": "address",
          "name": "account",
          "type": "address"
        }
      ],
      "name": "Unpaused",
      "type": "event"
    },
    {
      "inputs": [],
      "name": "ETH_USD_PRICE",
      "outputs": [
        {
          "internalType": "uint256",
          "name": "",
          "type": "uint256"
        }
      ],
      "stateMutability": "view",
      "type": "function",
      "constant": true
    },
    {
      "inputs": [],
      "name": "GAS_LIMIT",
      "outputs": [
        {
          "internalType": "uint256",
          "name": "",
          "type": "uint256"
        }
      ],
      "stateMutability": "view",
      "type": "function",
      "constant": true
    },
    {
      "inputs": [],
      "name": "bank",
      "outputs": [
        {
          "internalType": "address",
          "name": "",
          "type": "address"
        }
      ],
      "stateMutability": "view",
      "type": "function",
      "constant": true
    },
    {
      "inputs": [],
      "name": "bankFiatReserve",
      "outputs": [
        {
          "internalType": "uint256",
          "name": "",
          "type": "uint256"
        }
      ],
      "stateMutability": "view",
      "type": "function",
      "constant": true
    },
    {
      "inputs": [],
      "name": "owner",
      "outputs": [
        {
          "internalType": "address",
          "name": "",
          "type": "address"
        }
      ],
      "stateMutability": "view",
      "type": "function",
      "constant": true
    },
    {
      "inputs": [],
      "name": "paused",
      "outputs": [
        {
          "internalType": "bool",
          "name": "",
          "type": "bool"
        }
      ],
      "stateMutability": "view",
      "type": "function",
      "constant": true
    },
    {
      "inputs": [],
      "name": "renounceOwnership",
      "outputs": [],
      "stateMutability": "nonpayable",
      "type": "function"
    },
    {
      "inputs": [
        {
          "internalType": "address",
          "name": "newOwner",
          "type": "address"
        }
      ],
      "name": "transferOwnership",
      "outputs": [],
      "stateMutability": "nonpayable",
      "type": "function"
    },
    {
      "inputs": [
        {
          "internalType": "address",
          "name": "",
          "type": "address"
        }
      ],
      "name": "users",
      "outputs": [
        {
          "internalType": "uint256",
          "name": "fiatBalance",
          "type": "uint256"
        }
      ],
      "stateMutability": "view",
      "type": "function",
      "constant": true
    },
    {
      "stateMutability": "payable",
      "type": "receive",
      "payable": true
    },
    {
      "inputs": [],
      "name": "getUserDetails",
      "outputs": [
        {
          "internalType": "uint256",
          "name": "fiatBalance",
          "type": "uint256"
        },
        {
          "internalType": "uint256",
          "name": "cryptoBalance",
          "type": "uint256"
        }
      ],
      "stateMutability": "view",
      "type": "function",
      "constant": true
    },
    {
      "inputs": [],
      "name": "getBankDetails",
      "outputs": [
        {
          "internalType": "uint256",
          "name": "fiatReserve",
          "type": "uint256"
        },
        {
          "internalType": "uint256",
          "name": "cryptoBalance",
          "type": "uint256"
        }
      ],
      "stateMutability": "view",
      "type": "function",
      "constant": true
    },
    {
      "inputs": [],
      "name": "deposit",
      "outputs": [],
      "stateMutability": "payable",
      "type": "function",
      "payable": true
    },
    {
      "inputs": [
        {
          "internalType": "uint256",
          "name": "fiatAmount",
          "type": "uint256"
        }
      ],
      "name": "withdraw",
      "outputs": [],
      "stateMutability": "nonpayable",
      "type": "function"
    },
    {
      "inputs": [],
      "name": "pause",
      "outputs": [],
      "stateMutability": "nonpayable",
      "type": "function"
    },
    {
      "inputs": [],
      "name": "unpause",
      "outputs": [],
      "stateMutability": "nonpayable",
      "type": "function"
    },
    {
      "inputs": [
        {
          "internalType": "uint256",
          "name": "amount",
          "type": "uint256"
        }
      ],
      "name": "fundBankFiat",
      "outputs": [],
      "stateMutability": "nonpayable",
      "type": "function"
    }
  ],
  "bytecode": "0x608060405234801561000f575f80fd5b506040516117a43803806117a4833981810160405281019061003191906102c8565b335f73ffffffffffffffffffffffffffffffffffffffff168173ffffffffffffffffffffffffffffffffffffffff16036100a2575f6040517f1e4fbdf70000000000000000000000000000000000000000000000000000000081526004016100999190610315565b60405180910390fd5b6100b18161017660201b60201c565b50600180819055505f73ffffffffffffffffffffffffffffffffffffffff168273ffffffffffffffffffffffffffffffffffffffff1603610127576040517f08c379a000000000000000000000000000000000000000000000000000000000815260040161011e90610388565b60405180910390fd5b81600260016101000a81548173ffffffffffffffffffffffffffffffffffffffff021916908373ffffffffffffffffffffffffffffffffffffffff1602179055508060038190555050506103a6565b5f805f9054906101000a900473ffffffffffffffffffffffffffffffffffffffff169050815f806101000a81548173ffffffffffffffffffffffffffffffffffffffff021916908373ffffffffffffffffffffffffffffffffffffffff1602179055508173ffffffffffffffffffffffffffffffffffffffff168173ffffffffffffffffffffffffffffffffffffffff167f8be0079c531659141344cd1fd0a4f28419497f9722a3daafe3b4186f6b6457e060405160405180910390a35050565b5f80fd5b5f73ffffffffffffffffffffffffffffffffffffffff82169050919050565b5f6102648261023b565b9050919050565b6102748161025a565b811461027e575f80fd5b50565b5f8151905061028f8161026b565b92915050565b5f819050919050565b6102a781610295565b81146102b1575f80fd5b50565b5f815190506102c28161029e565b92915050565b5f80604083850312156102de576102dd610237565b5b5f6102eb85828601610281565b92505060206102fc858286016102b4565b9150509250929050565b61030f8161025a565b82525050565b5f6020820190506103285f830184610306565b92915050565b5f82825260208201905092915050565b7f42616e6b2061646472657373206973207a65726f0000000000000000000000005f82015250565b5f61037260148361032e565b915061037d8261033e565b602082019050919050565b5f6020820190508181035f83015261039f81610366565b9050919050565b6113f1806103b35f395ff3fe6080604052600436106100f6575f3560e01c806376cdb03b11610089578063a87430ba11610058578063a87430ba146102bd578063d0e30db0146102f9578063f2fde38b14610303578063fdb82ba21461032b576100fd565b806376cdb03b146102285780638456cb59146102525780638da5cb5b14610268578063942886be14610292576100fd565b80635c975abb116100c55780635c975abb1461019457806362300732146101be5780636cfaf0de146101e8578063715018a614610212576100fd565b8063091d2788146101015780632e1a7d4d1461012b5780633f4ba83a14610153578063503a37e014610169576100fd565b366100fd57005b5f80fd5b34801561010c575f80fd5b50610115610353565b6040516101229190610de8565b60405180910390f35b348015610136575f80fd5b50610151600480360381019061014c9190610e2f565b61035a565b005b34801561015e575f80fd5b506101676106ef565b005b348015610174575f80fd5b5061017d610701565b60405161018b929190610e5a565b60405180910390f35b34801561019f575f80fd5b506101a861070f565b6040516101b59190610e9b565b60405180910390f35b3480156101c9575f80fd5b506101d2610724565b6040516101df9190610de8565b60405180910390f35b3480156101f3575f80fd5b506101fc61072a565b6040516102099190610de8565b60405180910390f35b34801561021d575f80fd5b50610226610730565b005b348015610233575f80fd5b5061023c610743565b6040516102499190610ef3565b60405180910390f35b34801561025d575f80fd5b50610266610769565b005b348015610273575f80fd5b5061027c61077b565b6040516102899190610ef3565b60405180910390f35b34801561029d575f80fd5b506102a66107a2565b6040516102b4929190610e5a565b60405180910390f35b3480156102c8575f80fd5b506102e360048036038101906102de9190610f36565b610804565b6040516102f09190610de8565b60405180910390f35b61030161081e565b005b34801561030e575f80fd5b5061032960048036038101906103249190610f36565b610a47565b005b348015610336575f80fd5b50610351600480360381019061034c9190610e2f565b610acb565b005b620186a081565b610362610aee565b61036a610b2f565b5f81116103ac576040517f08c379a00000000000000000000000000000000000000000000000000000000081526004016103a390610fbb565b60405180910390fd5b8060045f3373ffffffffffffffffffffffffffffffffffffffff1673ffffffffffffffffffffffffffffffffffffffff1681526020019081526020015f205f0154101561042e576040517f08c379a000000000000000000000000000000000000000000000000000000000815260040161042590611023565b60405180910390fd5b5f610bb8670de0b6b3a764000083610446919061106e565b61045091906110dc565b90505f8111610494576040517f08c379a000000000000000000000000000000000000000000000000000000000815260040161048b90611156565b60405180910390fd5b804710156104d7576040517f08c379a00000000000000000000000000000000000000000000000000000000081526004016104ce906111be565b60405180910390fd5b8160045f3373ffffffffffffffffffffffffffffffffffffffff1673ffffffffffffffffffffffffffffffffffffffff1681526020019081526020015f205f015f82825461052591906111dc565b925050819055508160035f82825461053d919061120f565b925050819055505f3373ffffffffffffffffffffffffffffffffffffffff16826040516105699061126f565b5f6040518083038185875af1925050503d805f81146105a3576040519150601f19603f3d011682016040523d82523d5f602084013e6105a8565b606091505b50509050806105ec576040517f08c379a00000000000000000000000000000000000000000000000000000000081526004016105e3906112cd565b60405180910390fd5b3373ffffffffffffffffffffffffffffffffffffffff167fe38804fdf97c4e7a8f958471f5a57927189cc2f4b91cedbe3a3c553cb7b7e2188385604051610634929190610e5a565b60405180910390a23373ffffffffffffffffffffffffffffffffffffffff167f5e00297b9c4f8fef460c4d7123316eeeb08a64a0930d1d9cae0b61b7f663b25460045f3373ffffffffffffffffffffffffffffffffffffffff1673ffffffffffffffffffffffffffffffffffffffff1681526020019081526020015f205f01543373ffffffffffffffffffffffffffffffffffffffff16316040516106da929190610e5a565b60405180910390a250506106ec610b75565b50565b6106f7610b7e565b6106ff610c05565b565b5f8060035447915091509091565b5f60025f9054906101000a900460ff16905090565b610bb881565b60035481565b610738610b7e565b6107415f610c66565b565b600260019054906101000a900473ffffffffffffffffffffffffffffffffffffffff1681565b610771610b7e565b610779610d27565b565b5f805f9054906101000a900473ffffffffffffffffffffffffffffffffffffffff16905090565b5f8060045f3373ffffffffffffffffffffffffffffffffffffffff1673ffffffffffffffffffffffffffffffffffffffff1681526020019081526020015f205f01543373ffffffffffffffffffffffffffffffffffffffff1631915091509091565b6004602052805f5260405f205f91509050805f0154905081565b610826610aee565b61082e610b2f565b5f3411610870576040517f08c379a000000000000000000000000000000000000000000000000000000000815260040161086790611335565b60405180910390fd5b5f670de0b6b3a7640000610bb834610888919061106e565b61089291906110dc565b90508060035410156108d9576040517f08c379a00000000000000000000000000000000000000000000000000000000081526004016108d09061139d565b60405180910390fd5b8060045f3373ffffffffffffffffffffffffffffffffffffffff1673ffffffffffffffffffffffffffffffffffffffff1681526020019081526020015f205f015f828254610927919061120f565b925050819055508060035f82825461093f91906111dc565b925050819055503373ffffffffffffffffffffffffffffffffffffffff167f974ecaf7452fe5fa1b26dcbe5b66e0569b793155a3ae7e7402e6f4a73fd8bd42348360405161098e929190610e5a565b60405180910390a23373ffffffffffffffffffffffffffffffffffffffff167f5e00297b9c4f8fef460c4d7123316eeeb08a64a0930d1d9cae0b61b7f663b25460045f3373ffffffffffffffffffffffffffffffffffffffff1673ffffffffffffffffffffffffffffffffffffffff1681526020019081526020015f205f01543373ffffffffffffffffffffffffffffffffffffffff1631604051610a34929190610e5a565b60405180910390a250610a45610b75565b565b610a4f610b7e565b5f73ffffffffffffffffffffffffffffffffffffffff168173ffffffffffffffffffffffffffffffffffffffff1603610abf575f6040517f1e4fbdf7000000000000000000000000000000000000000000000000000000008152600401610ab69190610ef3565b60405180910390fd5b610ac881610c66565b50565b610ad3610b7e565b8060035f828254610ae4919061120f565b9250508190555050565b610af661070f565b15610b2d576040517fd93c066500000000000000000000000000000000000000000000000000000000815260040160405180910390fd5b565b600260015403610b6b576040517f3ee5aeb500000000000000000000000000000000000000000000000000000000815260040160405180910390fd5b6002600181905550565b60018081905550565b610b86610d89565b73ffffffffffffffffffffffffffffffffffffffff16610ba461077b565b73ffffffffffffffffffffffffffffffffffffffff1614610c0357610bc7610d89565b6040517f118cdaa7000000000000000000000000000000000000000000000000000000008152600401610bfa9190610ef3565b60405180910390fd5b565b610c0d610d90565b5f60025f6101000a81548160ff0219169083151502179055507f5db9ee0a495bf2e6ff9c91a7834c1ba4fdd244a5e8aa4e537bd38aeae4b073aa610c4f610d89565b604051610c5c9190610ef3565b60405180910390a1565b5f805f9054906101000a900473ffffffffffffffffffffffffffffffffffffffff169050815f806101000a81548173ffffffffffffffffffffffffffffffffffffffff021916908373ffffffffffffffffffffffffffffffffffffffff1602179055508173ffffffffffffffffffffffffffffffffffffffff168173ffffffffffffffffffffffffffffffffffffffff167f8be0079c531659141344cd1fd0a4f28419497f9722a3daafe3b4186f6b6457e060405160405180910390a35050565b610d2f610aee565b600160025f6101000a81548160ff0219169083151502179055507f62e78cea01bee320cd4e420270b5ea74000d11b0c9f74754ebdbfc544b05a258610d72610d89565b604051610d7f9190610ef3565b60405180910390a1565b5f33905090565b610d9861070f565b610dce576040517f8dfc202b00000000000000000000000000000000000000000000000000000000815260040160405180910390fd5b565b5f819050919050565b610de281610dd0565b82525050565b5f602082019050610dfb5f830184610dd9565b92915050565b5f80fd5b610e0e81610dd0565b8114610e18575f80fd5b50565b5f81359050610e2981610e05565b92915050565b5f60208284031215610e4457610e43610e01565b5b5f610e5184828501610e1b565b91505092915050565b5f604082019050610e6d5f830185610dd9565b610e7a6020830184610dd9565b9392505050565b5f8115159050919050565b610e9581610e81565b82525050565b5f602082019050610eae5f830184610e8c565b92915050565b5f73ffffffffffffffffffffffffffffffffffffffff82169050919050565b5f610edd82610eb4565b9050919050565b610eed81610ed3565b82525050565b5f602082019050610f065f830184610ee4565b92915050565b610f1581610ed3565b8114610f1f575f80fd5b50565b5f81359050610f3081610f0c565b92915050565b5f60208284031215610f4b57610f4a610e01565b5b5f610f5884828501610f22565b91505092915050565b5f82825260208201905092915050565b7f4669617420616d6f756e74206d757374206265203e20300000000000000000005f82015250565b5f610fa5601783610f61565b9150610fb082610f71565b602082019050919050565b5f6020820190508181035f830152610fd281610f99565b9050919050565b7f496e73756666696369656e7420666961742062616c616e6365000000000000005f82015250565b5f61100d601983610f61565b915061101882610fd9565b602082019050919050565b5f6020820190508181035f83015261103a81611001565b9050919050565b7f4e487b71000000000000000000000000000000000000000000000000000000005f52601160045260245ffd5b5f61107882610dd0565b915061108383610dd0565b925082820261109181610dd0565b915082820484148315176110a8576110a7611041565b5b5092915050565b7f4e487b71000000000000000000000000000000000000000000000000000000005f52601260045260245ffd5b5f6110e682610dd0565b91506110f183610dd0565b925082611101576111006110af565b5b828204905092915050565b7f45544820616d6f756e7420746f6f20736d616c6c0000000000000000000000005f82015250565b5f611140601483610f61565b915061114b8261110c565b602082019050919050565b5f6020820190508181035f83015261116d81611134565b9050919050565b7f436f6e74726163742068617320696e73756666696369656e74204554480000005f82015250565b5f6111a8601d83610f61565b91506111b382611174565b602082019050919050565b5f6020820190508181035f8301526111d58161119c565b9050919050565b5f6111e682610dd0565b91506111f183610dd0565b925082820390508181111561120957611208611041565b5b92915050565b5f61121982610dd0565b915061122483610dd0565b925082820190508082111561123c5761123b611041565b5b92915050565b5f81905092915050565b50565b5f61125a5f83611242565b91506112658261124c565b5f82019050919050565b5f6112798261124f565b9150819050919050565b7f455448207472616e7366657220746f2075736572206661696c656400000000005f82015250565b5f6112b7601b83610f61565b91506112c282611283565b602082019050919050565b5f6020820190508181035f8301526112e4816112ab565b9050919050565b7f53656e64204554480000000000000000000000000000000000000000000000005f82015250565b5f61131f600883610f61565b915061132a826112eb565b602082019050919050565b5f6020820190508181035f83015261134c81611313565b9050919050565b7f42616e6b2068617320696e73756666696369656e7420666961740000000000005f82015250565b5f611387601a83610f61565b915061139282611353565b602082019050919050565b5f6020820190508181035f8301526113b48161137b565b905091905056fea26469706673582212205820baa01ae75bbed225f5a4cfbc64a52e42ed360ea551af8faee3ac577e8ac264736f6c634300081a0033",
  "immutableReferences": {},
  "source": "// SPDX-License-Identifier: MIT\npragma solidity ^0.8.0;\n\nimport \"@openzeppelin/contracts/access/Ownable.sol\";\nimport \"@openzeppelin/contracts/utils/ReentrancyGuard.sol\";\nimport \"@openzeppelin/contracts/utils/Pausable.sol\";\n\n\ncontract CryptoDebitCard is Ownable, ReentrancyGuard, Pausable {\n    uint256 public constant ETH_USD_PRICE = 3000; // Mock rate: 1 ETH = 3000 USD\n    uint256 public constant GAS_LIMIT = 100000; // Increased gas limit for ETH transfers\n\n    address public bank;\n    uint256 public bankFiatReserve;\n\n    struct User {\n        uint256 fiatBalance;\n    }\n\n    mapping(address => User) public users;\n\n    event CryptoDeposited(address indexed user, uint256 ethAmount, uint256 fiatAmount);\n    event CryptoWithdrawn(address indexed user, uint256 ethAmount, uint256 fiatAmount);\n    event BalanceUpdated(address indexed user, uint256 fiatBalance, uint256 cryptoBalance);\n\n    constructor(address _bank, uint256 _initialFiatReserve) Ownable(msg.sender) {\n        require(_bank != address(0), \"Bank address is zero\");\n        bank = _bank;\n        bankFiatReserve = _initialFiatReserve;\n    }\n\n    // Get user account details\n    function getUserDetails() external view returns (uint256 fiatBalance, uint256 cryptoBalance) {\n        return (\n            users[msg.sender].fiatBalance,\n            msg.sender.balance\n        );\n    }\n\n    // Get bank balances\n    function getBankDetails() external view returns (uint256 fiatReserve, uint256 cryptoBalance) {\n        return (\n            bankFiatReserve,\n            address(this).balance\n        );\n    }\n\n    // Deposit ETH to receive equivalent fiat balance\n    function deposit() external payable whenNotPaused nonReentrant {\n        require(msg.value > 0, \"Send ETH\");\n\n        uint256 fiatAmount = (msg.value * ETH_USD_PRICE) / 1 ether;\n        require(bankFiatReserve >= fiatAmount, \"Bank has insufficient fiat\");\n\n        // Update balances\n        users[msg.sender].fiatBalance += fiatAmount;\n        bankFiatReserve -= fiatAmount;\n\n        emit CryptoDeposited(msg.sender, msg.value, fiatAmount);\n        emit BalanceUpdated(msg.sender, users[msg.sender].fiatBalance, msg.sender.balance);\n    }\n\n    // Withdraw fiat to get ETH back\n    function withdraw(uint256 fiatAmount) external whenNotPaused nonReentrant {\n        require(fiatAmount > 0, \"Fiat amount must be > 0\");\n        require(users[msg.sender].fiatBalance >= fiatAmount, \"Insufficient fiat balance\");\n\n        uint256 ethAmount = (fiatAmount * 1 ether) / ETH_USD_PRICE;\n        require(ethAmount > 0, \"ETH amount too small\");\n\n        // Check contract balance\n        require(address(this).balance >= ethAmount, \"Contract has insufficient ETH\");\n        \n        // Update balances before transfer to prevent reentrancy\n        users[msg.sender].fiatBalance -= fiatAmount;\n        bankFiatReserve += fiatAmount;\n\n        // Send ETH to user\n        (bool success, ) = payable(msg.sender).call{value: ethAmount}(\"\");\n        require(success, \"ETH transfer to user failed\");\n\n        emit CryptoWithdrawn(msg.sender, ethAmount, fiatAmount);\n        emit BalanceUpdated(msg.sender, users[msg.sender].fiatBalance, msg.sender.balance);\n    }\n\n    // Admin can pause the contract\n    function pause() external onlyOwner {\n        _pause();\n    }\n\n    function unpause() external onlyOwner {\n        _unpause();\n    }\n\n    // Admin can add fiat reserve\n    function fundBankFiat(uint256 amount) external onlyOwner {\n        bankFiatReserve += amount;\n    }\n\n    receive() external payable {}\n}\n",
  "sourcePath": "C:\\My stuff\\Study material updated\\SEM 8\\CryptoDebitCardProject\\CryptoDebitCardProject\\contracts\\CryptoDebitCard.sol",
  "compiler": {
    "name": "solc",
    "version": "0.8.26+commit.8a97fa7a.Emscripten.clang"
  },
  "schemaVersion": "3.4.16",
  "updatedAt": "2025-05-27T17:46:08.878Z",
  "networkType": "ethereum",
  "devdoc": {
    "errors": {
      "EnforcedPause()": [
        {
          "details": "The operation failed because the contract is paused."
        }
      ],
      "ExpectedPause()": [
        {
          "details": "The operation failed because the contract is not paused."
        }
      ],
      "OwnableInvalidOwner(address)": [
        {
          "details": "The owner is not a valid owner account. (eg. `address(0)`)"
        }
      ],
      "OwnableUnauthorizedAccount(address)": [
        {
          "details": "The caller account is not authorized to perform an operation."
        }
      ],
      "ReentrancyGuardReentrantCall()": [
        {
          "details": "Unauthorized reentrant call."
        }
      ]
    },
    "events": {
      "Paused(address)": {
        "details": "Emitted when the pause is triggered by `account`."
      },
      "Unpaused(address)": {
        "details": "Emitted when the pause is lifted by `account`."
      }
    },
    "kind": "dev",
    "methods": {
      "owner()": {
        "details": "Returns the address of the current owner."
      },
      "paused()": {
        "details": "Returns true if the contract is paused, and false otherwise."
      },
      "renounceOwnership()": {
        "details": "Leaves the contract without owner. It will not be possible to call `onlyOwner` functions. Can only be called by the current owner. NOTE: Renouncing ownership will leave the contract without an owner, thereby disabling any functionality that is only available to the owner."
      },
      "transferOwnership(address)": {
        "details": "Transfers ownership of the contract to a new account (`newOwner`). Can only be called by the current owner."
      }
    },
    "version": 1
  },
  "userdoc": {
    "kind": "user",
    "methods": {},
    "version": 1
  }
}